{
  "_format": "hh-sol-artifact-1",
  "contractName": "Collector",
  "sourceName": "contracts/Collector.sol",
  "abi": [
    {
      "inputs": [
        {
          "internalType": "bytes32",
          "name": "_root",
          "type": "bytes32"
        }
      ],
      "stateMutability": "nonpayable",
      "type": "constructor"
    },
    {
      "inputs": [
        {
          "internalType": "address",
          "name": "",
          "type": "address"
        }
      ],
      "name": "claimed",
      "outputs": [
        {
          "internalType": "bool",
          "name": "",
          "type": "bool"
        }
      ],
      "stateMutability": "view",
      "type": "function"
    },
    {
      "inputs": [
        {
          "internalType": "bytes32[]",
          "name": "proof",
          "type": "bytes32[]"
        },
        {
          "internalType": "bytes32",
          "name": "leaf",
          "type": "bytes32"
        },
        {
          "internalType": "string",
          "name": "graffiti",
          "type": "string"
        }
      ],
      "name": "collect",
      "outputs": [
        {
          "internalType": "bool",
          "name": "",
          "type": "bool"
        }
      ],
      "stateMutability": "nonpayable",
      "type": "function"
    },
    {
      "inputs": [],
      "name": "root",
      "outputs": [
        {
          "internalType": "bytes32",
          "name": "",
          "type": "bytes32"
        }
      ],
      "stateMutability": "view",
      "type": "function"
    }
  ],
  "bytecode": "0x608060405234801561001057600080fd5b5060405161092f38038061092f8339818101604052810190610032919061007a565b80600081905550506100a7565b600080fd5b6000819050919050565b61005781610044565b811461006257600080fd5b50565b6000815190506100748161004e565b92915050565b6000602082840312156100905761008f61003f565b5b600061009e84828501610065565b91505092915050565b610879806100b66000396000f3fe608060405234801561001057600080fd5b50600436106100415760003560e01c8063c884ef8314610046578063e403092914610076578063ebf0c717146100a6575b600080fd5b610060600480360381019061005b919061034e565b6100c4565b60405161006d9190610396565b60405180910390f35b610090600480360381019061008b91906105f5565b6100e4565b60405161009d9190610396565b60405180910390f35b6100ae610227565b6040516100bb919061068f565b60405180910390f35b60016020528060005260406000206000915054906101000a900460ff1681565b60006100f3846000548561022d565b610132576040517f08c379a000000000000000000000000000000000000000000000000000000000815260040161012990610707565b60405180910390fd5b60001515600160003373ffffffffffffffffffffffffffffffffffffffff1673ffffffffffffffffffffffffffffffffffffffff16815260200190815260200160002060009054906101000a900460ff161515146101c5576040517f08c379a00000000000000000000000000000000000000000000000000000000081526004016101bc90610773565b60405180910390fd5b60018060003373ffffffffffffffffffffffffffffffffffffffff1673ffffffffffffffffffffffffffffffffffffffff16815260200190815260200160002060006101000a81548160ff021916908315150217905550600190509392505050565b60005481565b60008261023a8584610244565b1490509392505050565b60008082905060005b845181101561028f5761027a8286838151811061026d5761026c610793565b5b602002602001015161029a565b91508080610287906107fb565b91505061024d565b508091505092915050565b60008183106102b2576102ad82846102c5565b6102bd565b6102bc83836102c5565b5b905092915050565b600082600052816020526040600020905092915050565b6000604051905090565b600080fd5b600080fd5b600073ffffffffffffffffffffffffffffffffffffffff82169050919050565b600061031b826102f0565b9050919050565b61032b81610310565b811461033657600080fd5b50565b60008135905061034881610322565b92915050565b600060208284031215610364576103636102e6565b5b600061037284828501610339565b91505092915050565b60008115159050919050565b6103908161037b565b82525050565b60006020820190506103ab6000830184610387565b92915050565b600080fd5b6000601f19601f8301169050919050565b7f4e487b7100000000000000000000000000000000000000000000000000000000600052604160045260246000fd5b6103ff826103b6565b810181811067ffffffffffffffff8211171561041e5761041d6103c7565b5b80604052505050565b60006104316102dc565b905061043d82826103f6565b919050565b600067ffffffffffffffff82111561045d5761045c6103c7565b5b602082029050602081019050919050565b600080fd5b6000819050919050565b61048681610473565b811461049157600080fd5b50565b6000813590506104a38161047d565b92915050565b60006104bc6104b784610442565b610427565b905080838252602082019050602084028301858111156104df576104de61046e565b5b835b8181101561050857806104f48882610494565b8452602084019350506020810190506104e1565b5050509392505050565b600082601f830112610527576105266103b1565b5b81356105378482602086016104a9565b91505092915050565b600080fd5b600067ffffffffffffffff8211156105605761055f6103c7565b5b610569826103b6565b9050602081019050919050565b82818337600083830152505050565b600061059861059384610545565b610427565b9050828152602081018484840111156105b4576105b3610540565b5b6105bf848285610576565b509392505050565b600082601f8301126105dc576105db6103b1565b5b81356105ec848260208601610585565b91505092915050565b60008060006060848603121561060e5761060d6102e6565b5b600084013567ffffffffffffffff81111561062c5761062b6102eb565b5b61063886828701610512565b935050602061064986828701610494565b925050604084013567ffffffffffffffff81111561066a576106696102eb565b5b610676868287016105c7565b9150509250925092565b61068981610473565b82525050565b60006020820190506106a46000830184610680565b92915050565b600082825260208201905092915050565b7f4661696c6564206d65726b6c652070726f6f6600000000000000000000000000600082015250565b60006106f16013836106aa565b91506106fc826106bb565b602082019050919050565b60006020820190508181036000830152610720816106e4565b9050919050565b7f416c726561647920636c61696d65640000000000000000000000000000000000600082015250565b600061075d600f836106aa565b915061076882610727565b602082019050919050565b6000602082019050818103600083015261078c81610750565b9050919050565b7f4e487b7100000000000000000000000000000000000000000000000000000000600052603260045260246000fd5b7f4e487b7100000000000000000000000000000000000000000000000000000000600052601160045260246000fd5b6000819050919050565b6000610806826107f1565b91507fffffffffffffffffffffffffffffffffffffffffffffffffffffffffffffffff8203610838576108376107c2565b5b60018201905091905056fea264697066735822122005c41da87aa24ac3bf850a7ec4a890111d4421ae9a758524dd07e8134b242a4c64736f6c63430008100033",
  "linkReferences": {},
  "deployedLinkReferences": {}
}