{
  "_format": "hh-sol-artifact-1",
  "contractName": "Collector",
  "sourceName": "contracts/Collector.sol",
  "abi": [
    {
      "inputs": [
        {
          "internalType": "bytes32",
          "name": "_root",
          "type": "bytes32"
        },
        {
          "internalType": "uint256",
          "name": "_weiPerClaim",
          "type": "uint256"
        }
      ],
      "stateMutability": "nonpayable",
      "type": "constructor"
    },
    {
      "anonymous": false,
      "inputs": [
        {
          "indexed": false,
          "internalType": "address",
          "name": "sender",
          "type": "address"
        },
        {
          "indexed": false,
          "internalType": "string",
          "name": "graffiti",
          "type": "string"
        }
      ],
      "name": "Claim",
      "type": "event"
    },
    {
      "anonymous": false,
      "inputs": [
        {
          "indexed": true,
          "internalType": "address",
          "name": "previousOwner",
          "type": "address"
        },
        {
          "indexed": true,
          "internalType": "address",
          "name": "newOwner",
          "type": "address"
        }
      ],
      "name": "OwnershipTransferred",
      "type": "event"
    },
    {
      "inputs": [
        {
          "internalType": "uint256",
          "name": "amount",
          "type": "uint256"
        }
      ],
      "name": "adminWithdraw",
      "outputs": [],
      "stateMutability": "nonpayable",
      "type": "function"
    },
    {
      "inputs": [
        {
          "internalType": "address",
          "name": "",
          "type": "address"
        }
      ],
      "name": "claimed",
      "outputs": [
        {
          "internalType": "bool",
          "name": "",
          "type": "bool"
        }
      ],
      "stateMutability": "view",
      "type": "function"
    },
    {
      "inputs": [
        {
          "internalType": "bytes32[]",
          "name": "proof",
          "type": "bytes32[]"
        },
        {
          "internalType": "string",
          "name": "graffiti",
          "type": "string"
        }
      ],
      "name": "collect",
      "outputs": [
        {
          "internalType": "bool",
          "name": "",
          "type": "bool"
        }
      ],
      "stateMutability": "nonpayable",
      "type": "function"
    },
    {
      "inputs": [],
      "name": "owner",
      "outputs": [
        {
          "internalType": "address",
          "name": "",
          "type": "address"
        }
      ],
      "stateMutability": "view",
      "type": "function"
    },
    {
      "inputs": [],
      "name": "renounceOwnership",
      "outputs": [],
      "stateMutability": "nonpayable",
      "type": "function"
    },
    {
      "inputs": [],
      "name": "root",
      "outputs": [
        {
          "internalType": "bytes32",
          "name": "",
          "type": "bytes32"
        }
      ],
      "stateMutability": "view",
      "type": "function"
    },
    {
      "inputs": [
        {
          "internalType": "address",
          "name": "newOwner",
          "type": "address"
        }
      ],
      "name": "transferOwnership",
      "outputs": [],
      "stateMutability": "nonpayable",
      "type": "function"
    },
    {
      "stateMutability": "payable",
      "type": "receive"
    }
  ],
  "bytecode": "0x60a06040523480156200001157600080fd5b50604051620011f2380380620011f28339818101604052810190620000379190620001b5565b620000576200004b6200006e60201b60201c565b6200007660201b60201c565b8160018190555080608081815250505050620001fc565b600033905090565b60008060009054906101000a900473ffffffffffffffffffffffffffffffffffffffff169050816000806101000a81548173ffffffffffffffffffffffffffffffffffffffff021916908373ffffffffffffffffffffffffffffffffffffffff1602179055508173ffffffffffffffffffffffffffffffffffffffff168173ffffffffffffffffffffffffffffffffffffffff167f8be0079c531659141344cd1fd0a4f28419497f9722a3daafe3b4186f6b6457e060405160405180910390a35050565b600080fd5b6000819050919050565b62000154816200013f565b81146200016057600080fd5b50565b600081519050620001748162000149565b92915050565b6000819050919050565b6200018f816200017a565b81146200019b57600080fd5b50565b600081519050620001af8162000184565b92915050565b60008060408385031215620001cf57620001ce6200013a565b5b6000620001df8582860162000163565b9250506020620001f2858286016200019e565b9150509250929050565b608051610fd36200021f600039600081816102c6015261039b0152610fd36000f3fe6080604052600436106100745760003560e01c80638da5cb5b1161004e5780638da5cb5b146100fd578063c884ef8314610128578063ebf0c71714610165578063f2fde38b146101905761007b565b806363b6684c14610080578063715018a6146100bd5780637c5b4a37146100d45761007b565b3661007b57005b600080fd5b34801561008c57600080fd5b506100a760048036038101906100a291906109b3565b6101b9565b6040516100b49190610a46565b60405180910390f35b3480156100c957600080fd5b506100d261042a565b005b3480156100e057600080fd5b506100fb60048036038101906100f69190610a97565b61043e565b005b34801561010957600080fd5b50610112610490565b60405161011f9190610b05565b60405180910390f35b34801561013457600080fd5b5061014f600480360381019061014a9190610b4c565b6104b9565b60405161015c9190610a46565b60405180910390f35b34801561017157600080fd5b5061017a6104d9565b6040516101879190610b88565b60405180910390f35b34801561019c57600080fd5b506101b760048036038101906101b29190610b4c565b6104df565b005b6000801515600260003373ffffffffffffffffffffffffffffffffffffffff1673ffffffffffffffffffffffffffffffffffffffff16815260200190815260200160002060009054906101000a900460ff1615151461024d576040517f08c379a000000000000000000000000000000000000000000000000000000000815260040161024490610c00565b60405180910390fd5b6000336040516020016102609190610c68565b6040516020818303038152906040528051906020012090506102858460015483610562565b6102c4576040517f08c379a00000000000000000000000000000000000000000000000000000000081526004016102bb90610ccf565b60405180910390fd5b7f0000000000000000000000000000000000000000000000000000000000000000471015610327576040517f08c379a000000000000000000000000000000000000000000000000000000000815260040161031e90610d3b565b60405180910390fd5b6001600260003373ffffffffffffffffffffffffffffffffffffffff1673ffffffffffffffffffffffffffffffffffffffff16815260200190815260200160002060006101000a81548160ff0219169083151502179055503373ffffffffffffffffffffffffffffffffffffffff166108fc7f00000000000000000000000000000000000000000000000000000000000000009081150290604051600060405180830381858888f193505050501580156103e5573d6000803e3d6000fd5b507fc8fdf13a4b928b8811a082d6f49538b13d9279cc130d1312406e8fa8742997353384604051610417929190610dc9565b60405180910390a1600191505092915050565b610432610579565b61043c60006105f7565b565b610446610579565b3373ffffffffffffffffffffffffffffffffffffffff166108fc829081150290604051600060405180830381858888f1935050505015801561048c573d6000803e3d6000fd5b5050565b60008060009054906101000a900473ffffffffffffffffffffffffffffffffffffffff16905090565b60026020528060005260406000206000915054906101000a900460ff1681565b60015481565b6104e7610579565b600073ffffffffffffffffffffffffffffffffffffffff168173ffffffffffffffffffffffffffffffffffffffff1603610556576040517f08c379a000000000000000000000000000000000000000000000000000000000815260040161054d90610e6b565b60405180910390fd5b61055f816105f7565b50565b60008261056f85846106bb565b1490509392505050565b610581610711565b73ffffffffffffffffffffffffffffffffffffffff1661059f610490565b73ffffffffffffffffffffffffffffffffffffffff16146105f5576040517f08c379a00000000000000000000000000000000000000000000000000000000081526004016105ec90610ed7565b60405180910390fd5b565b60008060009054906101000a900473ffffffffffffffffffffffffffffffffffffffff169050816000806101000a81548173ffffffffffffffffffffffffffffffffffffffff021916908373ffffffffffffffffffffffffffffffffffffffff1602179055508173ffffffffffffffffffffffffffffffffffffffff168173ffffffffffffffffffffffffffffffffffffffff167f8be0079c531659141344cd1fd0a4f28419497f9722a3daafe3b4186f6b6457e060405160405180910390a35050565b60008082905060005b8451811015610706576106f1828683815181106106e4576106e3610ef7565b5b6020026020010151610719565b915080806106fe90610f55565b9150506106c4565b508091505092915050565b600033905090565b60008183106107315761072c8284610744565b61073c565b61073b8383610744565b5b905092915050565b600082600052816020526040600020905092915050565b6000604051905090565b600080fd5b600080fd5b600080fd5b6000601f19601f8301169050919050565b7f4e487b7100000000000000000000000000000000000000000000000000000000600052604160045260246000fd5b6107bd82610774565b810181811067ffffffffffffffff821117156107dc576107db610785565b5b80604052505050565b60006107ef61075b565b90506107fb82826107b4565b919050565b600067ffffffffffffffff82111561081b5761081a610785565b5b602082029050602081019050919050565b600080fd5b6000819050919050565b61084481610831565b811461084f57600080fd5b50565b6000813590506108618161083b565b92915050565b600061087a61087584610800565b6107e5565b9050808382526020820190506020840283018581111561089d5761089c61082c565b5b835b818110156108c657806108b28882610852565b84526020840193505060208101905061089f565b5050509392505050565b600082601f8301126108e5576108e461076f565b5b81356108f5848260208601610867565b91505092915050565b600080fd5b600067ffffffffffffffff82111561091e5761091d610785565b5b61092782610774565b9050602081019050919050565b82818337600083830152505050565b600061095661095184610903565b6107e5565b905082815260208101848484011115610972576109716108fe565b5b61097d848285610934565b509392505050565b600082601f83011261099a5761099961076f565b5b81356109aa848260208601610943565b91505092915050565b600080604083850312156109ca576109c9610765565b5b600083013567ffffffffffffffff8111156109e8576109e761076a565b5b6109f4858286016108d0565b925050602083013567ffffffffffffffff811115610a1557610a1461076a565b5b610a2185828601610985565b9150509250929050565b60008115159050919050565b610a4081610a2b565b82525050565b6000602082019050610a5b6000830184610a37565b92915050565b6000819050919050565b610a7481610a61565b8114610a7f57600080fd5b50565b600081359050610a9181610a6b565b92915050565b600060208284031215610aad57610aac610765565b5b6000610abb84828501610a82565b91505092915050565b600073ffffffffffffffffffffffffffffffffffffffff82169050919050565b6000610aef82610ac4565b9050919050565b610aff81610ae4565b82525050565b6000602082019050610b1a6000830184610af6565b92915050565b610b2981610ae4565b8114610b3457600080fd5b50565b600081359050610b4681610b20565b92915050565b600060208284031215610b6257610b61610765565b5b6000610b7084828501610b37565b91505092915050565b610b8281610831565b82525050565b6000602082019050610b9d6000830184610b79565b92915050565b600082825260208201905092915050565b7f416c726561647920636c61696d65640000000000000000000000000000000000600082015250565b6000610bea600f83610ba3565b9150610bf582610bb4565b602082019050919050565b60006020820190508181036000830152610c1981610bdd565b9050919050565b60008160601b9050919050565b6000610c3882610c20565b9050919050565b6000610c4a82610c2d565b9050919050565b610c62610c5d82610ae4565b610c3f565b82525050565b6000610c748284610c51565b60148201915081905092915050565b7f4661696c6564206d65726b6c652070726f6f6600000000000000000000000000600082015250565b6000610cb9601383610ba3565b9150610cc482610c83565b602082019050919050565b60006020820190508181036000830152610ce881610cac565b9050919050565b7f496e73756666696369656e742066756e64730000000000000000000000000000600082015250565b6000610d25601283610ba3565b9150610d3082610cef565b602082019050919050565b60006020820190508181036000830152610d5481610d18565b9050919050565b600081519050919050565b60005b83811015610d84578082015181840152602081019050610d69565b60008484015250505050565b6000610d9b82610d5b565b610da58185610ba3565b9350610db5818560208601610d66565b610dbe81610774565b840191505092915050565b6000604082019050610dde6000830185610af6565b8181036020830152610df08184610d90565b90509392505050565b7f4f776e61626c653a206e6577206f776e657220697320746865207a65726f206160008201527f6464726573730000000000000000000000000000000000000000000000000000602082015250565b6000610e55602683610ba3565b9150610e6082610df9565b604082019050919050565b60006020820190508181036000830152610e8481610e48565b9050919050565b7f4f776e61626c653a2063616c6c6572206973206e6f7420746865206f776e6572600082015250565b6000610ec1602083610ba3565b9150610ecc82610e8b565b602082019050919050565b60006020820190508181036000830152610ef081610eb4565b9050919050565b7f4e487b7100000000000000000000000000000000000000000000000000000000600052603260045260246000fd5b7f4e487b7100000000000000000000000000000000000000000000000000000000600052601160045260246000fd5b6000610f6082610a61565b91507fffffffffffffffffffffffffffffffffffffffffffffffffffffffffffffffff8203610f9257610f91610f26565b5b60018201905091905056fea2646970667358221220aeceba8e9b454798395406119bed7d87ffa509704c804da246a1b2c0512258c764736f6c63430008100033",
  "linkReferences": {},
  "deployedLinkReferences": {}
}