{
  "_format": "hh-sol-artifact-1",
  "contractName": "Collector",
  "sourceName": "contracts/Collector.sol",
  "abi": [
    {
      "inputs": [
        {
          "internalType": "bytes32",
          "name": "_root",
          "type": "bytes32"
        },
        {
          "internalType": "uint256",
          "name": "_weiPerClaim",
          "type": "uint256"
        }
      ],
      "stateMutability": "nonpayable",
      "type": "constructor"
    },
    {
      "anonymous": false,
      "inputs": [
        {
          "indexed": false,
          "internalType": "address",
          "name": "sender",
          "type": "address"
        },
        {
          "indexed": false,
          "internalType": "string",
          "name": "graffiti",
          "type": "string"
        }
      ],
      "name": "Claim",
      "type": "event"
    },
    {
      "anonymous": false,
      "inputs": [
        {
          "indexed": true,
          "internalType": "address",
          "name": "previousOwner",
          "type": "address"
        },
        {
          "indexed": true,
          "internalType": "address",
          "name": "newOwner",
          "type": "address"
        }
      ],
      "name": "OwnershipTransferred",
      "type": "event"
    },
    {
      "inputs": [
        {
          "internalType": "bytes32",
          "name": "_root",
          "type": "bytes32"
        }
      ],
      "name": "adminUpdateRoot",
      "outputs": [],
      "stateMutability": "nonpayable",
      "type": "function"
    },
    {
      "inputs": [
        {
          "internalType": "uint256",
          "name": "amount",
          "type": "uint256"
        }
      ],
      "name": "adminWithdraw",
      "outputs": [],
      "stateMutability": "nonpayable",
      "type": "function"
    },
    {
      "inputs": [
        {
          "internalType": "address",
          "name": "",
          "type": "address"
        }
      ],
      "name": "claimed",
      "outputs": [
        {
          "internalType": "bool",
          "name": "",
          "type": "bool"
        }
      ],
      "stateMutability": "view",
      "type": "function"
    },
    {
      "inputs": [
        {
          "internalType": "bytes32[]",
          "name": "proof",
          "type": "bytes32[]"
        },
        {
          "internalType": "string",
          "name": "graffiti",
          "type": "string"
        },
        {
          "internalType": "address",
          "name": "recipient",
          "type": "address"
        }
      ],
      "name": "collect",
      "outputs": [
        {
          "internalType": "bool",
          "name": "",
          "type": "bool"
        }
      ],
      "stateMutability": "nonpayable",
      "type": "function"
    },
    {
      "inputs": [],
      "name": "owner",
      "outputs": [
        {
          "internalType": "address",
          "name": "",
          "type": "address"
        }
      ],
      "stateMutability": "view",
      "type": "function"
    },
    {
      "inputs": [],
      "name": "renounceOwnership",
      "outputs": [],
      "stateMutability": "nonpayable",
      "type": "function"
    },
    {
      "inputs": [],
      "name": "root",
      "outputs": [
        {
          "internalType": "bytes32",
          "name": "",
          "type": "bytes32"
        }
      ],
      "stateMutability": "view",
      "type": "function"
    },
    {
      "inputs": [
        {
          "internalType": "address",
          "name": "newOwner",
          "type": "address"
        }
      ],
      "name": "transferOwnership",
      "outputs": [],
      "stateMutability": "nonpayable",
      "type": "function"
    },
    {
      "stateMutability": "payable",
      "type": "receive"
    }
  ],
  "bytecode": "0x60a06040523480156200001157600080fd5b506040516200117a3803806200117a8339818101604052810190620000379190620001b5565b620000576200004b6200006e60201b60201c565b6200007660201b60201c565b8160018190555080608081815250505050620001fc565b600033905090565b60008060009054906101000a900473ffffffffffffffffffffffffffffffffffffffff169050816000806101000a81548173ffffffffffffffffffffffffffffffffffffffff021916908373ffffffffffffffffffffffffffffffffffffffff1602179055508173ffffffffffffffffffffffffffffffffffffffff168173ffffffffffffffffffffffffffffffffffffffff167f8be0079c531659141344cd1fd0a4f28419497f9722a3daafe3b4186f6b6457e060405160405180910390a35050565b600080fd5b6000819050919050565b62000154816200013f565b81146200016057600080fd5b50565b600081519050620001748162000149565b92915050565b6000819050919050565b6200018f816200017a565b81146200019b57600080fd5b50565b600081519050620001af8162000184565b92915050565b60008060408385031215620001cf57620001ce6200013a565b5b6000620001df8582860162000163565b9250506020620001f2858286016200019e565b9150509250929050565b608051610f5b6200021f60003960008181610267015261033c0152610f5b6000f3fe60806040526004361061007f5760003560e01c8063c884ef831161004e578063c884ef8314610133578063ebf0c71714610170578063f2fde38b1461019b578063f9edeaa2146101c457610086565b8063500386c61461008b578063715018a6146100c85780637c5b4a37146100df5780638da5cb5b1461010857610086565b3661008657005b600080fd5b34801561009757600080fd5b506100b260048036038101906100ad91906109c5565b6101ed565b6040516100bf9190610a6b565b60405180910390f35b3480156100d457600080fd5b506100dd6103cc565b005b3480156100eb57600080fd5b5061010660048036038101906101019190610abc565b6103e0565b005b34801561011457600080fd5b5061011d610432565b60405161012a9190610af8565b60405180910390f35b34801561013f57600080fd5b5061015a60048036038101906101559190610b13565b61045b565b6040516101679190610a6b565b60405180910390f35b34801561017c57600080fd5b5061018561047b565b6040516101929190610b4f565b60405180910390f35b3480156101a757600080fd5b506101c260048036038101906101bd9190610b13565b610481565b005b3480156101d057600080fd5b506101eb60048036038101906101e69190610b6a565b610504565b005b600080336040516020016102019190610bdf565b6040516020818303038152906040528051906020012090506102268560015483610516565b610265576040517f08c379a000000000000000000000000000000000000000000000000000000000815260040161025c90610c57565b60405180910390fd5b7f00000000000000000000000000000000000000000000000000000000000000004710156102c8576040517f08c379a00000000000000000000000000000000000000000000000000000000081526004016102bf90610cc3565b60405180910390fd5b6001600260003373ffffffffffffffffffffffffffffffffffffffff1673ffffffffffffffffffffffffffffffffffffffff16815260200190815260200160002060006101000a81548160ff0219169083151502179055508273ffffffffffffffffffffffffffffffffffffffff166108fc7f00000000000000000000000000000000000000000000000000000000000000009081150290604051600060405180830381858888f19350505050158015610386573d6000803e3d6000fd5b507fc8fdf13a4b928b8811a082d6f49538b13d9279cc130d1312406e8fa87429973533856040516103b8929190610d51565b60405180910390a160019150509392505050565b6103d461052d565b6103de60006105ab565b565b6103e861052d565b3373ffffffffffffffffffffffffffffffffffffffff166108fc829081150290604051600060405180830381858888f1935050505015801561042e573d6000803e3d6000fd5b5050565b60008060009054906101000a900473ffffffffffffffffffffffffffffffffffffffff16905090565b60026020528060005260406000206000915054906101000a900460ff1681565b60015481565b61048961052d565b600073ffffffffffffffffffffffffffffffffffffffff168173ffffffffffffffffffffffffffffffffffffffff16036104f8576040517f08c379a00000000000000000000000000000000000000000000000000000000081526004016104ef90610df3565b60405180910390fd5b610501816105ab565b50565b61050c61052d565b8060018190555050565b600082610523858461066f565b1490509392505050565b6105356106c5565b73ffffffffffffffffffffffffffffffffffffffff16610553610432565b73ffffffffffffffffffffffffffffffffffffffff16146105a9576040517f08c379a00000000000000000000000000000000000000000000000000000000081526004016105a090610e5f565b60405180910390fd5b565b60008060009054906101000a900473ffffffffffffffffffffffffffffffffffffffff169050816000806101000a81548173ffffffffffffffffffffffffffffffffffffffff021916908373ffffffffffffffffffffffffffffffffffffffff1602179055508173ffffffffffffffffffffffffffffffffffffffff168173ffffffffffffffffffffffffffffffffffffffff167f8be0079c531659141344cd1fd0a4f28419497f9722a3daafe3b4186f6b6457e060405160405180910390a35050565b60008082905060005b84518110156106ba576106a58286838151811061069857610697610e7f565b5b60200260200101516106cd565b915080806106b290610edd565b915050610678565b508091505092915050565b600033905090565b60008183106106e5576106e082846106f8565b6106f0565b6106ef83836106f8565b5b905092915050565b600082600052816020526040600020905092915050565b6000604051905090565b600080fd5b600080fd5b600080fd5b6000601f19601f8301169050919050565b7f4e487b7100000000000000000000000000000000000000000000000000000000600052604160045260246000fd5b61077182610728565b810181811067ffffffffffffffff821117156107905761078f610739565b5b80604052505050565b60006107a361070f565b90506107af8282610768565b919050565b600067ffffffffffffffff8211156107cf576107ce610739565b5b602082029050602081019050919050565b600080fd5b6000819050919050565b6107f8816107e5565b811461080357600080fd5b50565b600081359050610815816107ef565b92915050565b600061082e610829846107b4565b610799565b90508083825260208201905060208402830185811115610851576108506107e0565b5b835b8181101561087a57806108668882610806565b845260208401935050602081019050610853565b5050509392505050565b600082601f83011261089957610898610723565b5b81356108a984826020860161081b565b91505092915050565b600080fd5b600067ffffffffffffffff8211156108d2576108d1610739565b5b6108db82610728565b9050602081019050919050565b82818337600083830152505050565b600061090a610905846108b7565b610799565b905082815260208101848484011115610926576109256108b2565b5b6109318482856108e8565b509392505050565b600082601f83011261094e5761094d610723565b5b813561095e8482602086016108f7565b91505092915050565b600073ffffffffffffffffffffffffffffffffffffffff82169050919050565b600061099282610967565b9050919050565b6109a281610987565b81146109ad57600080fd5b50565b6000813590506109bf81610999565b92915050565b6000806000606084860312156109de576109dd610719565b5b600084013567ffffffffffffffff8111156109fc576109fb61071e565b5b610a0886828701610884565b935050602084013567ffffffffffffffff811115610a2957610a2861071e565b5b610a3586828701610939565b9250506040610a46868287016109b0565b9150509250925092565b60008115159050919050565b610a6581610a50565b82525050565b6000602082019050610a806000830184610a5c565b92915050565b6000819050919050565b610a9981610a86565b8114610aa457600080fd5b50565b600081359050610ab681610a90565b92915050565b600060208284031215610ad257610ad1610719565b5b6000610ae084828501610aa7565b91505092915050565b610af281610987565b82525050565b6000602082019050610b0d6000830184610ae9565b92915050565b600060208284031215610b2957610b28610719565b5b6000610b37848285016109b0565b91505092915050565b610b49816107e5565b82525050565b6000602082019050610b646000830184610b40565b92915050565b600060208284031215610b8057610b7f610719565b5b6000610b8e84828501610806565b91505092915050565b60008160601b9050919050565b6000610baf82610b97565b9050919050565b6000610bc182610ba4565b9050919050565b610bd9610bd482610987565b610bb6565b82525050565b6000610beb8284610bc8565b60148201915081905092915050565b600082825260208201905092915050565b7f4661696c6564206d65726b6c652070726f6f6600000000000000000000000000600082015250565b6000610c41601383610bfa565b9150610c4c82610c0b565b602082019050919050565b60006020820190508181036000830152610c7081610c34565b9050919050565b7f496e73756666696369656e742066756e64730000000000000000000000000000600082015250565b6000610cad601283610bfa565b9150610cb882610c77565b602082019050919050565b60006020820190508181036000830152610cdc81610ca0565b9050919050565b600081519050919050565b60005b83811015610d0c578082015181840152602081019050610cf1565b60008484015250505050565b6000610d2382610ce3565b610d2d8185610bfa565b9350610d3d818560208601610cee565b610d4681610728565b840191505092915050565b6000604082019050610d666000830185610ae9565b8181036020830152610d788184610d18565b90509392505050565b7f4f776e61626c653a206e6577206f776e657220697320746865207a65726f206160008201527f6464726573730000000000000000000000000000000000000000000000000000602082015250565b6000610ddd602683610bfa565b9150610de882610d81565b604082019050919050565b60006020820190508181036000830152610e0c81610dd0565b9050919050565b7f4f776e61626c653a2063616c6c6572206973206e6f7420746865206f776e6572600082015250565b6000610e49602083610bfa565b9150610e5482610e13565b602082019050919050565b60006020820190508181036000830152610e7881610e3c565b9050919050565b7f4e487b7100000000000000000000000000000000000000000000000000000000600052603260045260246000fd5b7f4e487b7100000000000000000000000000000000000000000000000000000000600052601160045260246000fd5b6000610ee882610a86565b91507fffffffffffffffffffffffffffffffffffffffffffffffffffffffffffffffff8203610f1a57610f19610eae565b5b60018201905091905056fea26469706673582212207475530d2c3a536d3282950423b890411ec06eb5bbc35f47a4bf3ec693aa0dca64736f6c63430008100033",
  "linkReferences": {},
  "deployedLinkReferences": {}
}