{
  "_format": "hh-sol-artifact-1",
  "contractName": "Collector",
  "sourceName": "contracts/Collector.sol",
  "abi": [
    {
      "inputs": [
        {
          "internalType": "bytes32",
          "name": "_root",
          "type": "bytes32"
        },
        {
          "internalType": "uint256",
          "name": "_weiPerClaim",
          "type": "uint256"
        }
      ],
      "stateMutability": "nonpayable",
      "type": "constructor"
    },
    {
      "anonymous": false,
      "inputs": [
        {
          "indexed": false,
          "internalType": "address",
          "name": "sender",
          "type": "address"
        },
        {
          "indexed": false,
          "internalType": "string",
          "name": "graffiti",
          "type": "string"
        }
      ],
      "name": "Claim",
      "type": "event"
    },
    {
      "anonymous": false,
      "inputs": [
        {
          "indexed": true,
          "internalType": "address",
          "name": "previousOwner",
          "type": "address"
        },
        {
          "indexed": true,
          "internalType": "address",
          "name": "newOwner",
          "type": "address"
        }
      ],
      "name": "OwnershipTransferred",
      "type": "event"
    },
    {
      "inputs": [
        {
          "internalType": "uint256",
          "name": "amount",
          "type": "uint256"
        }
      ],
      "name": "adminWithdraw",
      "outputs": [],
      "stateMutability": "nonpayable",
      "type": "function"
    },
    {
      "inputs": [
        {
          "internalType": "address",
          "name": "",
          "type": "address"
        }
      ],
      "name": "claimed",
      "outputs": [
        {
          "internalType": "bool",
          "name": "",
          "type": "bool"
        }
      ],
      "stateMutability": "view",
      "type": "function"
    },
    {
      "inputs": [
        {
          "internalType": "bytes32[]",
          "name": "proof",
          "type": "bytes32[]"
        },
        {
          "internalType": "string",
          "name": "graffiti",
          "type": "string"
        }
      ],
      "name": "collect",
      "outputs": [
        {
          "internalType": "bool",
          "name": "",
          "type": "bool"
        }
      ],
      "stateMutability": "nonpayable",
      "type": "function"
    },
    {
      "inputs": [],
      "name": "owner",
      "outputs": [
        {
          "internalType": "address",
          "name": "",
          "type": "address"
        }
      ],
      "stateMutability": "view",
      "type": "function"
    },
    {
      "inputs": [],
      "name": "renounceOwnership",
      "outputs": [],
      "stateMutability": "nonpayable",
      "type": "function"
    },
    {
      "inputs": [],
      "name": "root",
      "outputs": [
        {
          "internalType": "bytes32",
          "name": "",
          "type": "bytes32"
        }
      ],
      "stateMutability": "view",
      "type": "function"
    },
    {
      "inputs": [
        {
          "internalType": "address",
          "name": "newOwner",
          "type": "address"
        }
      ],
      "name": "transferOwnership",
      "outputs": [],
      "stateMutability": "nonpayable",
      "type": "function"
    },
    {
      "stateMutability": "payable",
      "type": "receive"
    }
  ],
  "bytecode": "0x60806040523480156200001157600080fd5b506040516200114a3803806200114a8339818101604052810190620000379190620001b4565b620000576200004b6200006d60201b60201c565b6200007560201b60201c565b81600281905550806001819055505050620001fb565b600033905090565b60008060009054906101000a900473ffffffffffffffffffffffffffffffffffffffff169050816000806101000a81548173ffffffffffffffffffffffffffffffffffffffff021916908373ffffffffffffffffffffffffffffffffffffffff1602179055508173ffffffffffffffffffffffffffffffffffffffff168173ffffffffffffffffffffffffffffffffffffffff167f8be0079c531659141344cd1fd0a4f28419497f9722a3daafe3b4186f6b6457e060405160405180910390a35050565b600080fd5b6000819050919050565b62000153816200013e565b81146200015f57600080fd5b50565b600081519050620001738162000148565b92915050565b6000819050919050565b6200018e8162000179565b81146200019a57600080fd5b50565b600081519050620001ae8162000183565b92915050565b60008060408385031215620001ce57620001cd62000139565b5b6000620001de8582860162000162565b9250506020620001f1858286016200019d565b9150509250929050565b610f3f806200020b6000396000f3fe6080604052600436106100745760003560e01c80638da5cb5b1161004e5780638da5cb5b146100fd578063c884ef8314610128578063ebf0c71714610165578063f2fde38b146101905761007b565b806363b6684c14610080578063715018a6146100bd5780637c5b4a37146100d45761007b565b3661007b57005b600080fd5b34801561008c57600080fd5b506100a760048036038101906100a2919061091f565b6101b9565b6040516100b491906109b2565b60405180910390f35b3480156100c957600080fd5b506100d2610396565b005b3480156100e057600080fd5b506100fb60048036038101906100f69190610a03565b6103aa565b005b34801561010957600080fd5b506101126103fc565b60405161011f9190610a71565b60405180910390f35b34801561013457600080fd5b5061014f600480360381019061014a9190610ab8565b610425565b60405161015c91906109b2565b60405180910390f35b34801561017157600080fd5b5061017a610445565b6040516101879190610af4565b60405180910390f35b34801561019c57600080fd5b506101b760048036038101906101b29190610ab8565b61044b565b005b6000801515600360003373ffffffffffffffffffffffffffffffffffffffff1673ffffffffffffffffffffffffffffffffffffffff16815260200190815260200160002060009054906101000a900460ff1615151461024d576040517f08c379a000000000000000000000000000000000000000000000000000000000815260040161024490610b6c565b60405180910390fd5b6000336040516020016102609190610bd4565b60405160208183030381529060405280519060200120905061028584600254836104ce565b6102c4576040517f08c379a00000000000000000000000000000000000000000000000000000000081526004016102bb90610c3b565b60405180910390fd5b600154471015610309576040517f08c379a000000000000000000000000000000000000000000000000000000000815260040161030090610ca7565b60405180910390fd5b3373ffffffffffffffffffffffffffffffffffffffff166108fc6001549081150290604051600060405180830381858888f19350505050158015610351573d6000803e3d6000fd5b507fc8fdf13a4b928b8811a082d6f49538b13d9279cc130d1312406e8fa8742997353384604051610383929190610d35565b60405180910390a1600191505092915050565b61039e6104e5565b6103a86000610563565b565b6103b26104e5565b3373ffffffffffffffffffffffffffffffffffffffff166108fc829081150290604051600060405180830381858888f193505050501580156103f8573d6000803e3d6000fd5b5050565b60008060009054906101000a900473ffffffffffffffffffffffffffffffffffffffff16905090565b60036020528060005260406000206000915054906101000a900460ff1681565b60025481565b6104536104e5565b600073ffffffffffffffffffffffffffffffffffffffff168173ffffffffffffffffffffffffffffffffffffffff16036104c2576040517f08c379a00000000000000000000000000000000000000000000000000000000081526004016104b990610dd7565b60405180910390fd5b6104cb81610563565b50565b6000826104db8584610627565b1490509392505050565b6104ed61067d565b73ffffffffffffffffffffffffffffffffffffffff1661050b6103fc565b73ffffffffffffffffffffffffffffffffffffffff1614610561576040517f08c379a000000000000000000000000000000000000000000000000000000000815260040161055890610e43565b60405180910390fd5b565b60008060009054906101000a900473ffffffffffffffffffffffffffffffffffffffff169050816000806101000a81548173ffffffffffffffffffffffffffffffffffffffff021916908373ffffffffffffffffffffffffffffffffffffffff1602179055508173ffffffffffffffffffffffffffffffffffffffff168173ffffffffffffffffffffffffffffffffffffffff167f8be0079c531659141344cd1fd0a4f28419497f9722a3daafe3b4186f6b6457e060405160405180910390a35050565b60008082905060005b84518110156106725761065d828683815181106106505761064f610e63565b5b6020026020010151610685565b9150808061066a90610ec1565b915050610630565b508091505092915050565b600033905090565b600081831061069d5761069882846106b0565b6106a8565b6106a783836106b0565b5b905092915050565b600082600052816020526040600020905092915050565b6000604051905090565b600080fd5b600080fd5b600080fd5b6000601f19601f8301169050919050565b7f4e487b7100000000000000000000000000000000000000000000000000000000600052604160045260246000fd5b610729826106e0565b810181811067ffffffffffffffff82111715610748576107476106f1565b5b80604052505050565b600061075b6106c7565b90506107678282610720565b919050565b600067ffffffffffffffff821115610787576107866106f1565b5b602082029050602081019050919050565b600080fd5b6000819050919050565b6107b08161079d565b81146107bb57600080fd5b50565b6000813590506107cd816107a7565b92915050565b60006107e66107e18461076c565b610751565b9050808382526020820190506020840283018581111561080957610808610798565b5b835b81811015610832578061081e88826107be565b84526020840193505060208101905061080b565b5050509392505050565b600082601f830112610851576108506106db565b5b81356108618482602086016107d3565b91505092915050565b600080fd5b600067ffffffffffffffff82111561088a576108896106f1565b5b610893826106e0565b9050602081019050919050565b82818337600083830152505050565b60006108c26108bd8461086f565b610751565b9050828152602081018484840111156108de576108dd61086a565b5b6108e98482856108a0565b509392505050565b600082601f830112610906576109056106db565b5b81356109168482602086016108af565b91505092915050565b60008060408385031215610936576109356106d1565b5b600083013567ffffffffffffffff811115610954576109536106d6565b5b6109608582860161083c565b925050602083013567ffffffffffffffff811115610981576109806106d6565b5b61098d858286016108f1565b9150509250929050565b60008115159050919050565b6109ac81610997565b82525050565b60006020820190506109c760008301846109a3565b92915050565b6000819050919050565b6109e0816109cd565b81146109eb57600080fd5b50565b6000813590506109fd816109d7565b92915050565b600060208284031215610a1957610a186106d1565b5b6000610a27848285016109ee565b91505092915050565b600073ffffffffffffffffffffffffffffffffffffffff82169050919050565b6000610a5b82610a30565b9050919050565b610a6b81610a50565b82525050565b6000602082019050610a866000830184610a62565b92915050565b610a9581610a50565b8114610aa057600080fd5b50565b600081359050610ab281610a8c565b92915050565b600060208284031215610ace57610acd6106d1565b5b6000610adc84828501610aa3565b91505092915050565b610aee8161079d565b82525050565b6000602082019050610b096000830184610ae5565b92915050565b600082825260208201905092915050565b7f416c726561647920636c61696d65640000000000000000000000000000000000600082015250565b6000610b56600f83610b0f565b9150610b6182610b20565b602082019050919050565b60006020820190508181036000830152610b8581610b49565b9050919050565b60008160601b9050919050565b6000610ba482610b8c565b9050919050565b6000610bb682610b99565b9050919050565b610bce610bc982610a50565b610bab565b82525050565b6000610be08284610bbd565b60148201915081905092915050565b7f4661696c6564206d65726b6c652070726f6f6600000000000000000000000000600082015250565b6000610c25601383610b0f565b9150610c3082610bef565b602082019050919050565b60006020820190508181036000830152610c5481610c18565b9050919050565b7f496e73756666696369656e742066756e64730000000000000000000000000000600082015250565b6000610c91601283610b0f565b9150610c9c82610c5b565b602082019050919050565b60006020820190508181036000830152610cc081610c84565b9050919050565b600081519050919050565b60005b83811015610cf0578082015181840152602081019050610cd5565b60008484015250505050565b6000610d0782610cc7565b610d118185610b0f565b9350610d21818560208601610cd2565b610d2a816106e0565b840191505092915050565b6000604082019050610d4a6000830185610a62565b8181036020830152610d5c8184610cfc565b90509392505050565b7f4f776e61626c653a206e6577206f776e657220697320746865207a65726f206160008201527f6464726573730000000000000000000000000000000000000000000000000000602082015250565b6000610dc1602683610b0f565b9150610dcc82610d65565b604082019050919050565b60006020820190508181036000830152610df081610db4565b9050919050565b7f4f776e61626c653a2063616c6c6572206973206e6f7420746865206f776e6572600082015250565b6000610e2d602083610b0f565b9150610e3882610df7565b602082019050919050565b60006020820190508181036000830152610e5c81610e20565b9050919050565b7f4e487b7100000000000000000000000000000000000000000000000000000000600052603260045260246000fd5b7f4e487b7100000000000000000000000000000000000000000000000000000000600052601160045260246000fd5b6000610ecc826109cd565b91507fffffffffffffffffffffffffffffffffffffffffffffffffffffffffffffffff8203610efe57610efd610e92565b5b60018201905091905056fea2646970667358221220e12fce3715b579205d750fe3e3d80b4794b45b91abd781df1383e9e48e77084f64736f6c63430008100033",
  "linkReferences": {},
  "deployedLinkReferences": {}
}